:020000040800F2
:10000000D04700201103000835360008E13400080D
:1000100031360008B11D0008C53C00080000000092
:100020000000000000000000000000002137000870
:10003000B51D000800000000B13600084D3700086B
:100040002B0300082B0300082B0300082B030008D8
:100050002B0300082B0300082B0300082B030008C8
:100060002B0300082B0300082B0300082B030008B8
:100070002B0300082B0300082B0300082B030008A8
:100080002B0300082B0300082B0300082B03000898
:100090002B0300082B0300082B0300082B03000888
:1000A0002B030008593800082B0300082B03000815
:1000B0002B0300082B0300082B0300082B03000868
:1000C0002B0300082B0300082B0300082B03000858
:1000D0002B0300082B0300082B0300082B03000848
:1000E0002B0300082B0300082B0300082B03000838
:1000F0002B0300082B0300082B0300082B03000828
:100100002B0300082B0300082B0300082B03000817
:100110002B0300082B0300082B0300082B03000807
:100120002B0300082B0300082B0300082B030008F7
:100130002B03000800000000000000002B03000853
:100140002B0300082B0300082B0300082B030008D7
:100150002B0300082B0300082B0300082B030008C7
:100160002B0300082B0300082B0300082B030008B7
:100170002B0300082B030008000000000000000013
:100180002B0300082B03000800F002F800F0B0F881
:1001900014A696E8000CB244B344DA4501D100F04D
:1001A000A7F8BAE80F000FA696E83000A5EB040503
:1001B00004EB0607AAEB0704A7F101074FEA1515A0
:1001C0004FEA3414A4F10104AC4201D300F090F8DA
:1001D00013F0010F18BFFB1A43F0010300F001F800
:1001E000DBE71847B0620000D0620000103A24BF7D
:1001F00078C878C1FAD8520724BF30C830C144BF8C
:1002000004680C6070470000704700000023002461
:1002100000250026103A28BF78C1FBD8520728BF16
:1002200030C148BF0B6070476E2900F0DD81702936
:1002300000F01383662906F05280652906F04F808E
:10024000672906F04C80612906F04B8003681B0A81
:1002500028BF41F08001692900F08A81642900F0FB
:100260008781752900F084816F2900F0A1827829A7
:1002700000F0DF82E92900F03B82E42900F03882B7
:10028000F52900F03582EF2900F09E82F82900F070
:10029000DE820368DB0928BF41F08001632900F09A
:1002A000F787732900F0FC87E32901F00780F32921
:1002B00001F00C80002070471FB506F003F89DE8A0
:1002C000030001F0FDFA01F0F7F80400002000211E
:1002D00005F0E2FF401C60600020002105F0C6FF31
:1002E000E06000F0FBFF1FBD10B501F060F810BD2D
:1002F00001F0B4F81146FFF7DFFF03F0C3FD01F092
:100300007BFA03B4FFF7F0FF03BC01F097FC000099
:100310000948804709480047FEE7FEE7FEE7FEE799
:10032000FEE7FEE7FEE7FEE7FEE7FEE704480549D5
:10033000054A064B7047000045380008890100084F
:10034000D0410020D0470020D0430020D0430020DF
:1003500053EA020C00F069802DE9F04B4FF00006E3
:10036000002B1FBFB3FA83F503FA05F424FA05F650
:100370005E4012BF1643B2FA82F502FA05F4C5F1E7
:1003800020051EBF22FA05FC44EA0C04203556EA7B
:10039000044C4FEA144418BF641C4FF000084FF09F
:1003A0000009904271EB030C39D3002919BFB1FA4F
:1003B00081F701FA07F6B0FA80F700FA07F6C7F1FD
:1003C00020071EBF20FA07FC46EA0C062037B6FBC2
:1003D000F4FCA7EB0507103F07F01F0BCBF120063D
:1003E0002CFA06F60CFA0BFB44BFB3460026202F6E
:1003F000A4BF5E464FF0000B5BEA060C08BF4FF04F
:10040000010B19EB0B0948EB0608ABFB027C06FB62
:1004100002CC0BFB03CCC01B71EB0C01C1E70B46FC
:10042000024641464846BDE8F08B13B5084318BF65
:100430004FF0FF300146AFF30080BDE81C4070472D
:100440000FB4044910B503AA029800F0E1F810BCFB
:100450005DF814FB740000204FF0000200B5134655
:1004600094469646203922BFA0E80C50A0E80C50D4
:10047000B1F12001BFF4F7AF090728BFA0E80C5085
:1004800048BF0CC05DF804EB890028BF40F8042B7E
:1004900008BF704748BF20F8022B11F0804F18BFEB
:1004A00000F8012B704770477047704770B50446DD
:1004B00085690068C10601D5302600E02026C00706
:1004C00007D070BDD4E9012130469047206A401C16
:1004D00020626D1EF6D570BD70B504468569007842
:1004E000C00707D170BDD4E9012120209047206AC0
:1004F000401C20626D1EF6D570BD09684A0501D505
:1005000040B27047C905FCD500B2704709684A057A
:1005100001D5C0B27047C905FCD580B2704770B52F
:100520000C460546012A05D02878800600D5EA69E0
:10053000002302E0012305E05B1C934202D2E05C51
:100540000028F9D1A869E618C01AA861286A1844D9
:1005500028622846FFF7AAFF04E0D5E9012114F834
:10056000010B9047B442F8D32846FFF7B5FF70BDA2
:100570002DE9F0410646002410687529314616A57C
:1005800010D0FFF7BAFF002802DA404213A507E0B7
:1005900031688A0701D512A502E0490704D511A5E3
:1005A000012401E0FFF7B2FF00210A2206F124072F
:1005B00009E0B0FBF2FCB0FBF2F302FB1C003030B0
:1005C00078541846491C0028F3D123462A46304661
:1005D000BDE8F04100F055BA000000002D00000019
:1005E0002B0000002000000011680268006A53051B
:1005F00001D508700AE0D30501D5088006E013068E
:1006000003D5C217C1E9000200E00860012070476D
:10061000074B70B50D467B4400F01DFE044628468E
:1006200000F058FE10B14FF0FF3070BD204670BD95
:100630006F3700002DE9FF5F15468A460446DFF854
:10064000AC80F8440027D8E900103E46CDE9001000
:1006500010E03AF816106A4602A800F0DBFE411CD2
:1006600007D02178890603D5E269391891420DD85F
:100670000744761C2078800602D5E069B84205DD83
:10068000AE42E6DB3AF816000028E2D1A069C01BB2
:10069000A0612046FFF70AFFD8E90010CDE900105D
:1006A000002017E03AF818106A4602A800F0B2FEDF
:1006B000B0F1FF3F81460BD000250DF1080B05E09E
:1006C000D4E901211BF8050090476D1C4D45F7D377
:1006D00008F10100B0428046E4DB206A3844206221
:1006E0002046FFF7F9FEBDE8FF9F0000A25C000076
:1006F0002DE9F0418046D21D22F007020025D2E903
:100700000002F52915A614D0011E72F1000106DAC7
:100710000023D0EB030063EB020211A608E0D8F837
:1007200000108B0701D50FA602E0490701D50EA6E0
:1007300001251146002408F1240704E000F05CF9CB
:1007400030323A55641C50EA0102F7D12B4632464A
:1007500021464046BDE8F04100F093B9000000009A
:100760002D0000002B0000002000000030B400210C
:1007700000F1240408E002F00705D208303542EA0F
:100780004372DB086554491C52EA0305F3D104683F
:10079000002310A2250708D504F020040C4304D040
:1007A000C46901230CA2641EC46130BC00F069B9A5
:1007B00010B5044621461068FFF7A8FE0246204601
:1007C000BDE810400023D1E7D21D22F00701D1E996
:1007D0000023CBE70000000030000000F0B40D461D
:1007E0000188090502D5214C7C4402E01F4C7C4461
:1007F0000E34002100F1240608E002F00F07120970
:10080000E75D42EA03721B097754491C52EA030769
:10081000F3D102780023120704D5702D06D009B158
:10082000022311342246F0BC00F02BB9012310340E
:10083000F8E770B504460D4621461068FFF766FEDE
:10084000024629462046BDE870400023C6E7D21D77
:1008500022F00703D3E90023C0E70368126843F0DE
:10086000200303600823C3610023B7E7045B000093
:100870002DE9F05F894604464FF0000ADFF874B1B5
:10088000FB44C0F820A02046E1688847002874D0C7
:10089000252806D0D4E901219047206A401C206217
:1008A000F1E700265F462046E16888472028054694
:1008B00007DB312D05D2781910F8200C08B106435A
:1008C000F1E7B00701D526F00406C4F81CA0002704
:1008D000C4F818A02A2D09D0284605F0BFFC38B36B
:1008E00004EB8708303DC8F8185019E059F8041B8C
:1008F000204604EB87029161E1688847012F054695
:1009000018D1E069002820DA26F020061DE0D8F88A
:10091000180000EB800005EB40003038C8F81800E4
:100920002046E1688847054605F098FC0028EED18E
:10093000012F0AD02E2D08D12046E16888477F1C60
:100940000546022F46F02006C4DBA069002803DA22
:10095000404246F00106A061F00701D026F01006E3
:100960006C2D0BD0682D09D04C2D39D06A2D35D087
:10097000742D35D07A2D33D016E038E0E1682F465B
:1009800020468847B842054609D16C2F26D04FF43F
:100990008060E168064320468847054604E06C2FE6
:1009A0001AD04FF4807006430DB3A5F14100192809
:1009B00002D8203546F400664A462946204626607D
:1009C0004E46FFF731FC80B101280BD0F61D26F012
:1009D000070000F1080956E74020E4E78020D8E747
:1009E0000020D6E706F104094DE7284652E7206AC1
:1009F000BDE8F09F945A000030B5B0F10A0271F1E1
:100A000000034FEA900E4EEA817EB0EB0E0061EBE0
:100A100091014FEA101E4EEA017E10EB0E0041EBF1
:100A200011114FEA102E4EEA016E10EB0E0041EB51
:100A300011214FEA104E4EEA014E10EB0E0041EB31
:100A40001141401841F100014FEAD00040EA4170E5
:100A50004FEAD1014FEA810444EA907410EB80051B
:100A600044EB01046D1944EB0404521BA3414FF005
:100A7000000348BF0A3200D530BD401C41F10001DF
:100A800030BD2DE9F0470D4699469246044600F1E7
:100A900024080168880604D5E06921F0100121606E
:100AA00000E00120A84201DD471B00E00027A1690A
:100AB0007A1902EB0900081AA0612078C00602D456
:100AC0002046FFF7F3FC002608E0D4E901211AF8DC
:100AD00006009047206A401C761C20624E45F4DBDD
:100AE0002078C0060AD52046FFF7E0FC06E0D4E9EE
:100AF000012130209047206A401C2062381EA7F157
:100B00000107F4DC07E0D4E9012118F8050090475B
:100B1000206A401C2062281EA5F10105F3DC204656
:100B2000FFF7DAFC2078000602D50220BDE8F08746
:100B30000120FBE72DE9FF4F0C461E464FF0FF3723
:100B40008BB0D2E90001DDF860800A908A46C1F3DB
:100B50000A5505B93D46002108464FF00000BAF19C
:100B6000000F00F4400005DA00EB80004FF4400174
:100B700001EA50004FEA9059B9F1010F00DDB94682
:100B80000A9850EA4A000ED044F61050A5F2FF35FC
:100B900045432F14B8F1000F1ED07542291E1EDDEB
:100BA000C9F100021CE0B8F1010F4FF0000001D0C4
:100BB000302103E0F24305E02154401CB042FBDB4E
:100BC00030460022002121540B99C1F80880C1E968
:100BD00000200FB0BDE8F08FBD1B6D1CDEE74A465C
:100BE00000DA694206A800F0D3FC06AB93E80700E0
:100BF00003AB83E8070050460A9904F04FFF8DE8E5
:100C00000700A0F500501F3800900398002D0ADD62
:100C100042F21F014A460844002303A90390684694
:100C200005F0B8F909E0A0F500504A461F38002346
:100C300003A90390684605F0C2F98DE80700000497
:100C4000000C03D04FF0FF30410800E01046B8F12F
:100C5000000F03D00022009215461EE0751E05D439
:100C6000FFF7CAFE303262556D1EF9D5B346012238
:100C7000084302D000227F1C04E02078302801D1F4
:100C800000227F1E002A099784D01DE0112D07DA6B
:100C9000FFF7B2FE303262556D1C50EA0102F5D109
:100CA000084302D00098C8B10EE00021681E05E09C
:100CB000235C625C63542254401E491C8142F7DB72
:100CC000AB46A81B401E0990002004F80B000B98AF
:100CD000099AC0F80880C0E9002B7AE711264FF086
:100CE000000857E72DE9F04F88460446D21D22F050
:100CF000070191B0D1E90001CDE90A0105F096FAAA
:100D000002460B98C00F01D02D2007E02068810714
:100D100001D52B2002E0202101EAC000032A09901E
:100D200001D0072A05DB03464146204600F0F0FBD0
:100D30000BE12078800601D5E06900E00620B8F1DB
:100D4000650F814606D0B8F1660F18D0B8F1670F6D
:100D500070D131E00020B9F1110F009001DB1123B7
:100D600001E009F101030AAA01A90CA8FFF7E2FEBC
:100D7000DDE90C70002609F10105834647E00120FA
:100D80004B4600904FF000470AAA01A90CA8FFF7B4
:100D9000D1FEDDE90DB00C995D46002610B909F1D0
:100DA00001000D18B9EB050003D4C0F1FF3609F1BD
:100DB0000105A5EB09002BE0B9F1010F01DA4FF0B5
:100DC00001090020B9F1110F0090484601DD1123FF
:100DD00000E003460AAA01A90CA8FFF7ABFEDDE973
:100DE0000C704D4600268346207800070AD4AB4598
:100DF00000DA5D4601A8012D04DD411911F8011C3E
:100E0000302907D04F4502DA17F1040F04DA012028
:100E100082460FE06D1EEEE7002F02DCED1B3E4424
:100E200003E0781CA84200DD7D1CB81B00F1010A1C
:100E30004FF000472078000703D4AA4501DB4FF0AC
:100E4000FF3A0021B7F1004F0DF143088DF8431030
:100E500024D002202B23002F01DA7F422D230A21E8
:100E6000021EA0F1010000DC5FB197FBF1FC97FBD3
:100E7000F1F201FB1C7C17460CF1300C08F801CD97
:100E8000EEE7A8F1010003702188090501D545218D
:100E900000E06521A0F1010800F8011C09980FA9E4
:100EA000A1EB0807FF1D00B10120411901EBEA7019
:100EB000A1693844081A401EA0612078C00602D4F7
:100EC0002046FFF7F3FA099828B1D4E901219047A9
:100ED000206A401C20622078C00622D52046FFF7F9
:100EE000E5FA1EE0002E04DBB34502DD01A8805DBB
:100EF00000E03020D4E901219047206A401C2062A4
:100F0000761CAAF101005FEA000A0AD100F0D4FAC7
:100F1000C0680168405CD4E901219047206A401C08
:100F20002062281EA5F10105DCDC07E0D4E90121DF
:100F300018F8010B9047206A401C2062381EA7F168
:100F40000107F3DC2046FFF7C7FA032011B041E6A2
:100F50002DE9F04F04460D46D21D22F0070089B05E
:100F6000D0E900974846394605F060F90246F80F87
:100F700001D02D2307E02068810701D52B2302E053
:100F8000202101EAC0038DF820300BB1012000E0E0
:100F90000020032A824601D0072A04DB2946204686
:100FA00000F0B6FA3FE12078800601D40D2500E07C
:100FB000E569C7F30A560D2D49DA00214FEA175BA0
:100FC00008464FF00000002F00F4400007DA00EB65
:100FD00080004FF4400100EBD07001EA6000811501
:100FE000012901DD4FF0FF3100224FEA850CBCF1F1
:100FF000180F06D31346ACF118004FF08052C240D0
:1010000003E04FF4801323FA0CF30CF10C0CBCF149
:10101000200F04D3ACF1200C09FA0CF001E007FA20
:101020000CF000294FF0004801DD18B90FE00ED197
:1010300040450CD319EB02095F4121B9404502D16B
:101040009F4329EA0209BBEB175F00D0761C20887A
:10105000000502D57B48784402E07A487844193884
:1010600008AA302302F80A30037C0AF10101002E9D
:101070000AF1020A53546A4602DC4FF0300101E0E3
:101080004FF031014FF001088DF8001002D0A6F2A8
:10109000FF3603E059EA470100D06B4E002D02DC19
:1010A0002178090704D54FF002082E218DF8011090
:1010B000C44600210BE0C7F303433F01C35C491C56
:1010C0006D1E02F80830052908F1010801DA002D2B
:1010D000F1DC00210CE000EB1973491C1B786D1E3C
:1010E000082902F808304FEA091908F1010801DA65
:1010F000002DF0DC21688B0602D516E0A8F101086E
:10110000E04505DD02EB080313F8013C302BF5D078
:10111000B8F1000F09DD02EB080313F8013C2E2B98
:1011200003D1090701D4A8F10108002D05DD3E21F6
:1011300002F808106D1E08F10108407C002E02F82C
:10114000080008F1010804DA2D20764202F80800B0
:1011500002E02B2002F808000A214FF47A70864240
:1011600008F101080BDB96FBF0F3303302F808308E
:1011700096FBF0F308F1010800FB136601E0642E12
:101180000CDB642096FBF0F3303302F8083096FB5A
:10119000F0F308F1010800FB136601E00A2E06DBFC
:1011A00096FBF1F0303002F8080008F1010896FBD8
:1011B000F1F001FB1060303002F80800A16908F17D
:1011C000010808EB050202EB0A00081AA06120786A
:1011D000C00602D42046FFF769F9216A08AE01EB88
:1011E0000A00206204E0D4E9012116F8010B9047BF
:1011F000BAF1010AF7D22078C00602D52046FFF7DF
:1012000055F96E4609E016F8010B3E280FD0D4E9D7
:1012100001219047206A401C2062B8F10108F2D2F7
:101220002046FFF759F909B00320BDE8F08F206A86
:101230002844206203E0D4E90121302090476D1E4C
:10124000EBD3F8E7E252000002FCFFFF01694A1C01
:1012500002610878704700B58FB0CDE901310021F7
:10126000059105497944CDE9031011466846FFF719
:10127000FFFA0FB000BD0000E5FFFFFF10B54369A6
:1012800013B1AFF3008001E0FFF749F9012010BD71
:10129000127800F124010A7000224A700122EDE761
:1012A00011684FF0FF32E9E710B5436913B1AFF3AE
:1012B000008001E0FFF7BEF9012010BD128800F1A7
:1012C000240182840022C2840122EDE711684FF0DC
:1012D000FF32E9E7007B00F08000704710B542481C
:1012E0005421FFF7B9F841485421FFF7B5F84048B9
:1012F0005421FFF7B1F83F493B483C4A3F4B086057
:101300003D490A603A491960531C0365481C106541
:10131000012008653B48344A39A1784400F0CEF9F1
:1013200020B9384878440A3800F06FFA37482F4A15
:1013300035A1784400F0C2F920B9344878440A381D
:1013400000F063FA32482A4A2FA1784400F0B6F937
:1013500020B92F4878440A3800F057FA4023224831
:10136000DC000021224600F085F920B125487844B0
:10137000543800F04AFA1D4822464023002100F06C
:1013800079F920B121487844543800F03EFA1848E1
:1013900022461023002100F06DF9002806D01C48D9
:1013A0007844BDE81040563800F02FBA10BD104800
:1013B00070B5006D20F001040B4800F0F7F90B4800
:1013C00000F0F4F90A4800F0F1F909E0206D20F08E
:1013D0000105204600F0EAF9204600F071F82C469D
:1013E000002CF3D170BD000020000020740000200C
:1013F000C800002000000020040000200800002099
:101400007200000031500000770000001D50000005
:10141000095000002DE9F04116460C46054600F043
:1014200043F8036893F80101012807D0FF2C12D874
:10143000185D80B101202C70BDE8F081D3F8070160
:101440003246214603F20713C7182846BC46BDE8BA
:10145000F041002360474FF0FF30EDE7754600F0A4
:101460000FFAAE4605006946534620F00700854650
:1014700018B020B5FEF75AFFBDE820404FF0000637
:101480004FF000074FF000084FF0000BAC46ACE8FF
:10149000C009ACE8C009ACE8C009ACE8C00921F05B
:1014A00007018D467047000010B500F005F8001DDB
:1014B00010BD00BFE54D0000004870473C01002012
:1014C00070B50446051F00F0DFF90068002C14BF5A
:1014D000446870BD002C18BFAC423CBF2046646815
:1014E000F8D301680A18AA4218BF456003D12A68D8
:1014F00005461144016028684119A1421CBF6C6077
:1015000070BD6168696021680844286070BD000092
:101510002DE9F0411F46044603260168072A01F41D
:10152000006004DB08B116A505E016A503E008B1CC
:1015300015A500E015A521F010002060A069C01ECF
:10154000A0610FB1401EA0612046FEF7AFFF4FB172
:10155000D4E9012138469047206A401C2062C01C13
:10156000206206E0206AFAE7D4E9012115F8010BB0
:101570009047761EF8D22046FEF7AEFFBDE8F08118
:101580004E414E006E616E00494E4600696E660027
:101590002DE9F047814616468AB0354878440DC893
:1015A0008DE80D0032487844801C03AC0DC884E8F7
:1015B0000D0041F69B300844372190FBF1F290FB7F
:1015C000F1F5A5F1800501FB12041B3C02D5644234
:1015D000012000E00020DFF898A080460027FA44B0
:1015E000AAF1BE0A0EE0E0070AD03246684607EBD1
:1015F000470101230AEB810104F0E1FC8DE80700BB
:1016000064107F1C002CEED1194F7F44AE3F19E0CF
:10161000E80715D007EB04100DF1180A90E80E004A
:101620008AE80E00C068F04201D19819089032464D
:10163000012306A903A804F0C2FC03AB83E807005A
:101640006D10641C002DE3D14FF001033246694652
:10165000B8F1000F03A802D004F09CFC01E004F0F4
:10166000AEFCC9E90001C9F808200AB0BDE8F0875E
:10167000384E000070B5C468A50713D0650211D4B8
:10168000B2F5807F09D0B2F5007F06D0B2F5806F49
:1016900008D1012300F1240106E05D1E6FF07F46B2
:1016A000B54201D3012070BD0161C361416024F4E2
:1016B00070611143C160002070BD00002DE9F04150
:1016C0000C461646070047D0104600F06FF8207809
:1016D000611C61280AD0722802D077283CD102E030
:1016E0000125002405E00225042402E0082448F234
:1016F000020511F8010B2B2806D0622809D011F839
:10170000010C74280AD00BE045F0030544F00204F4
:10171000EFE745F0040544F00104EAE744F0100463
:101720003846214600F078F8411C15D0002131617F
:1017300071604FF40071F560F1617061200704D5AC
:1017400030460222002100F019F9306D40F001000E
:1017500030653046BDE8F0810020FBE72DE9F0411F
:101760000D460646104C206DC10704D0410804D038
:1017700020F00104F7E722460EE0542000F0CFF8F5
:1017800007000ED0206D47F0010108435421206569
:101790003846FEF761FE3A4629463046BDE8F0413C
:1017A0008CE70020D6E70000200000202DE9F0475C
:1017B00004464FF0FF380026C568D4E90497A8070F
:1017C00018D0204600F096F9384600F02FF800288F
:1017D00000DA4646280502D54846FFF771FE4C213F
:1017E0002046FEF739FE206D20F0010020653046CE
:1017F000BDE8F0874046FBE710B50446AFF3008034
:101800002046BDE81040FEF77CBD10B500F0BCF9E5
:10181000BDE8104000F0B2B90EB5CDE9000100F00E
:1018200075FA029069460120ABBE0EBD08B5694647
:1018300000900220ABBE08BD1FB58DE807006946C9
:101840000520ABBE04B010BD1FB58DE80F00694682
:101850000620ABBEF6E708B5694600900920ABBE8E
:1018600008BD1CB5CDE9000169460A20ABBE1CBD10
:10187000704708B5694600900C20ABBE08BD00005B
:10188000004870471C0100200048704724010020D8
:10189000704770477047704738B504460A460020C5
:1018A0006946AFF30080002808BF38BD02460099A2
:1018B000204600F0D0F9012038BD012000F01FBA09
:1018C000F8B5AFF30080054600200C460C2000BFA1
:1018D0000646A819A0420DD9324669460020AFF34A
:1018E0000080070008BF00F00AFA0098A04218BF65
:1018F0000546C419FFF7C8FF05600746F01D20F034
:1019000007004619284600F0A0F9B44208BFF8BD08
:10191000A21B31463868BDE8F84000F09CB970B5AC
:101920000646FFF7B1FF056806F10B0020F007043B
:10193000B4429CBF002070BD2B466A68BAB11068E3
:10194000A04210D304F1080188423CBF506858609F
:1019500007D35168101941601168091B0160586074
:101960001460101D70BD13465268002AE7D121464D
:101970002846FFF791FF0028DED170BD2DE9F04128
:10198000044616460D464769007B80072ED0384630
:10199000FFF761FF50BB3EB3012E02D0022E25D1CE
:1019A00004E0204600F071F905441DE03846FFF7D9
:1019B00060FFE168002841F01001E16005DA20468F
:1019C00000F058F80120BDE8F081C9030BD562682A
:1019D000E16A914200D81146A26911442269891A2C
:1019E000814200DD08460544002D01DA0220EAE7C5
:1019F000E16A6068E268814206D29103E06203D541
:101A000022F4003141F01002A6690027AE4213DC37
:101A1000E16A814201D90B4600E0034603EB060C64
:101A20002369ACEB030CAC4506DD814201D98C4641
:101A300000E084469C4505D1A760276042F0200065
:101A4000A5620DE0AD1BE669AE1B8142A66000D920
:101A50000846C01A281A20605819606022F0200039
:101A600003490840E060002084F84870ABE70000BC
:101A7000BFCFD7FFC16821F4001141F08001C160E0
:101A800000218160016070472DE9F74F15460C4633
:101A90004FF0FF3B3848D768D2F814A0074209D06E
:101AA0005046A969FFF7DDFE002819DB3248C04324
:101AB0000740EF604FF000496FF000484C4501D3FC
:101AC000464600E0264600993B4650463246FFF720
:101AD000B3FEA96920F00042B21A1144A96128B1ED
:101AE0002846FFF7C7FF5846BDE8FE8FA41BE5D187
:101AF0000020F9E770B504460569C06A616888424C
:101B000000D80846E16821F42011E160C90312D52C
:101B1000A84208D02246411B2846FFF7B5FF10B166
:101B20004FF0FF3070BD0020E562C4E90150E0686D
:101B300020F48030E060002070BD10B50446C0681D
:101B400020F02000E060A16AA06988420DD0204604
:101B5000FFF7D0FFE06820F4405040F01000E06054
:101B6000A06AA0612069E062606044F24001E06820
:101B70008843E06010BD000010000200002801D082
:101B800000F05CB87047000010B5014602A000F0FC
:101B90009DF8012010BD000053494752545245445E
:101BA0003A2052656469726563743A2063616E27F6
:101BB00074206F70656E3A20000000000000000085
:101BC00030B44FF0013C50F8042B51F8043BCCFAF0
:101BD00052F4D51A20D1FCB950F8042B51F8043B2B
:101BE000CCFA52F4D51A17D1B4B950F8042B51F8E5
:101BF000043BCCFA52F4D51A0ED16CB950F8042B30
:101C000051F8043BCCFA52F4D51A05D1002CDAD0A5
:101C100030BC4FF00000704729BAB1FA81F111F0E1
:101C20001801D1F120008440F2D1CA40CB4012F01B
:101C3000FF0213F0FF0330BCD01A7047014918208F
:101C4000ABBEFEE726000200704700210160416044
:101C500070470C207047034640688C46002818BF28
:101C600088423CBF03464068F8D31868184488424D
:101C700007D00CF1030020F00700001D411A521A92
:101C80000146081D0A60FFF71BBC10B50146C2687B
:101C9000900703D0900607D5886A0AE000F05CF848
:101CA00001210160881E10BD8B69486818440B69CA
:101CB000C01A91F848301BB191F84910401A10BD74
:101CC0001103FCD50028FADD401E10BD70B5054695
:101CD0000C460A2000E06D1C00F037F835B128787A
:101CE0000028F8D102E0641C00F02FF814B120782D
:101CF0000028F8D1BDE870400A2000F026B810B5E1
:101D000000F02EF8BDE81040FFF738BF10B5431CB7
:101D100002E010F8011B71B18107FAD14FF00132D6
:101D200002C88C1A8C4314EAC211F9D0C01A0A06F0
:101D300003D0C01E10BDC01A10BD0A0401D0801E01
:101D400010BD0902FCD0401E10BD08B569468DF8D3
:101D500000000320ABBE08BD004870471C010020F6
:101D600010B5012805D0002103A0FFF7AFFF012027
:101D700010BD09A1F8E7000053494752544D454DA5
:101D80003A204F7574206F662068656170206D651C
:101D90006D6F7279000000003A2048656170206D17
:101DA000656D6F727920636F72727570746564000F
:101DB000FFE7FEE77047000072B6FFE7FEE70000AE
:101DC0008EB00D900C9100200A90099008900B9015
:101DD000FFE70B980F2800F2CC81FFE70B99012059
:101DE00088400A900C9800680A9908400990099860
:101DF0000A99884240F0B881FFE70C98406800F0EB
:101E00000300012807D0FFE70C98406800F00300AA
:101E100002282FD1FFE70D98806808900B984100A9
:101E2000032000FA01F10898884308900C98C068D4
:101E30000B99490000FA01F10898084308900898A6
:101E40000D9988600D98406808900B99012000FA60
:101E500001F10898884308900C984068C0F300107E
:101E60000B9900FA01F108980843089008980D9919
:101E70004860FFE70C98406800F00300032818D082
:101E8000FFE70D98C06808900B984100032000FA06
:101E900001F10898884308900C9880680B994900D4
:101EA00000FA01F108980843089008980D99C86055
:101EB000FFE70C98406800F00300022826D1FFE7F6
:101EC0000D980B996FF0030202EA51010844006A71
:101ED00008900B9800F0070081000F2000FA01F134
:101EE0000898884308900C9800690B9901F0070145
:101EF000890000FA01F108980843089008980D99A4
:101F00000B9B02EA530211440862FFE70D98006838
:101F100008900B984100032000FA01F108988843CB
:101F200008900C98406800F003000B99490000FAF3
:101F300001F108980843089008980D9908600C98DA
:101F400080798007002800F00E81FFE7FFE700207E
:101F5000079043F64400C4F20200016841F4804156
:101F60000160006800F4804007900798FFE70B9835
:101F700020F0030043F60801C4F201014058089024
:101F80000B9800F0030081000F2000FA01F108987F
:101F9000884308900D980021C4F20201884203D1C1
:101FA000FFE7002006905EE00D9840F20041C4F289
:101FB0000201884203D1FFE70120059050E00D980F
:101FC00040F60001C4F20201884203D1FFE702207B
:101FD000049042E00D9840F60041C4F202018842AC
:101FE00003D1FFE70320039034E00D9841F2000194
:101FF000C4F20201884203D1FFE70420029026E0E8
:102000000D9841F20041C4F20201884203D1FFE77A
:102010000520019018E00D9841F60001C4F202017C
:10202000884203D1FFE7062000900AE00D9941F6AF
:102030000042C4F202020820914208BF072000902B
:10204000FFE700980190FFE701980290FFE70298F0
:102050000390FFE703980490FFE704980590FFE7DB
:1020600005980690FFE70698C0B20B9901F00301AE
:10207000890000FA01F108980843089008980B9924
:1020800021F0030143F60802C4F20102885043F62E
:102090000840C4F201000068089009990898884334
:1020A00008900C988079C006002805D5FFE70999AB
:1020B000089808430890FFE7089843F60841C4F2DF
:1020C0000101086043F60C40C4F20100006808906A
:1020D00009990898884308900C9880798006002810
:1020E00005D5FFE70999089808430890FFE7089885
:1020F00043F60C41C4F20101086043F60440C4F207
:1021000001000068089009990898884308900C9885
:1021100080798007002805D5FFE7099908980843CA
:102120000890FFE7089843F60441C4F201010860F3
:1021300043F60040C4F2010000680890099908982D
:10214000884308900C988079C00728B1FFE7099967
:10215000089808430890FFE7089843F60041C4F246
:1021600001010860FFE7FFE7FFE70B9801300B90E4
:102170002FE60EB07047000082B00190ADF802105B
:1021800001980069BDF80210084204D0FFE7012061
:102190008DF8010003E000208DF80100FFE79DF8B5
:1021A000010002B07047000082B00190ADF802104B
:1021B0008DF801209DF8010028B1FFE7BDF802006D
:1021C0000199886105E0BDF8020000040199886169
:1021D000FFE702B07047000043F6C460C2F200009F
:1021E0000068704740F21000C2F20000027843F627
:1021F000C461C2F200010868104408607047000022
:1022000080B543F60041C4F20201086840F4007052
:102210000860086840F480600860086840F48070D6
:102220000860032000F0C6F80F2000F005F800F069
:1022300071F8002080BD000080B58CB00B900020AC
:1022400005900490FFE70020019043F64400C4F29B
:102250000200016841F001010160006800F0010026
:1022600001900198FFE706A803A900F0DDF900F04E
:102270001DFA4000059005984DF68361C4F21B31AC
:10228000A0FB01014FF0FF3000EB9140049040F2C1
:102290009010C2F200000021C4F20101016040F27E
:1022A000E731C16004994160002101618160816171
:1022B00000F0EAFD8DF80B009DF80B0028BBFFE74E
:1022C00040F29010C2F2000000F030FE8DF80B00DA
:1022D0009DF80B00C0B9FFE7192000F047F80B98F4
:1022E0000F280CD8FFE70B991920002200F048F8BE
:1022F0000B9840F21401C2F20001086003E00120D3
:102300008DF80B00FFE7FFE7FFE79DF80B000CB02F
:1023100080BD000080B582B0FFE70020019043F649
:102320004400C4F20200016841F480410160006889
:1023300000F4804001900198FFE7FFE70020009043
:1023400043F64000C4F20200016841F08051016090
:10235000006800F0805000900098FFE76FF00100E7
:102360000F21002200F00CF802B080BD80B582B0D1
:102370008DF807009DF9070001F0A6FC02B080BDB2
:1023800080B586B08DF8170004910392002002906A
:1023900001F0B2FC02909DF9170001900298049997
:1023A000039A01F049F90146019801F0ADFC06B02D
:1023B00080BD000080B582B00190019801F0C6FC9C
:1023C00002B080BD80B584B002900191029820B91E
:1023D000FFE701208DF80F0021E1019843F600414D
:1023E000C4F20201096801F00701884212D9FFE72F
:1023F000019943F60040C4F202000170006800F049
:1024000007000199884204D0FFE701208DF80F00F2
:1024100005E1FFE702980078800700282AD5FFE74A
:10242000029800784007002809D5FFE743F6080125
:10243000C4F20201086840F4E0500860FFE7029827
:1024400000780007002809D5FFE743F60801C4F229
:102450000201086840F460400860FFE743F60801A5
:10246000C4F20201086820F0F000029A926810435A
:102470000860FFE702980078C00700286ED0FFE7E9
:1024800002984068012811D1FFE743F60000C4F22A
:102490000200006800F400310020B0EB514F04D17D
:1024A000FFE701208DF80F00B9E02CE002984068AA
:1024B000022805D0FFE702984068032811D1FFE702
:1024C00043F60000C4F20200006800F00071002032
:1024D000B0EB516F04D1FFE701208DF80F009EE0B3
:1024E00010E043F60000C4F20200006800F00201B0
:1024F0000020B0EB510F04D1FFE701208DF80F0051
:102500008DE0FFE7FFE743F60801C4F20201086827
:1025100020F00300029A526810430860FFF75CFE47
:102520000090FFE743F60800C4F20200006800F0E4
:102530000C0002994968B0EB810F0ED0FFE7FFF75E
:102540004BFE0099401A41F28931884204D3FFE7DB
:1025500003208DF80F0062E0E4E7FFE7019843F6FF
:102560000041C4F20201096801F00701884212D259
:10257000FFE7019943F60040C4F2020001700068D1
:1025800000F007000199884204D0FFE701208DF890
:102590000F0044E0FFE702980078400700280CD5C0
:1025A000FFE743F60801C4F20201086820F4E05096
:1025B000029AD26810430860FFE70298007800078B
:1025C00000280DD5FFE743F60801C4F202010868B0
:1025D00020F46040029A126940EAC2000860FFE7F6
:1025E00000F076F843F60801C4F202010968C9B2A6
:1025F0000A0946F20C41C0F60001895CC84040F26D
:102600000C01C2F20001086040F21400C2F20000A6
:102610000068FFF711FE00208DF80F00FFE79DF81E
:102620000F0004B080BD000082B0019000910199BC
:102630000F20086043F60800C4F20200016801F0B0
:102640000301019A5160016801F0F001019A916063
:10265000016801F4E051019AD160006800F4604023
:10266000C0080199086143F60040C4F20200006806
:1026700000F007000099086002B0704740F20C00BB
:10268000C2F200000068704780B5FFF7F7FF43F61D
:102690000801C4F202010968C1F3822246F21C411A
:1026A000C0F60001895CC84080BD000080B5FFF71E
:1026B000E5FF43F60801C4F20201096889B24A0B3A
:1026C00046F21C41C0F60001895CC84080BD000094
:1026D00080B586B00020059004900390029043F6E8
:1026E0000800C4F20200006800F00C0001460191ED
:1026F00040B1FFE7019804280AD0FFE701980828B5
:102700000CD04FE042F20040C0F2F40002904FE0E3
:1027100043F20060C0F26E10029049E043F60400FC
:10272000C4F20200016801F03F0105910068400217
:10273000002813D5FFE743F60400C4F20200006846
:10274000C0F3881043F20061C0F26E11A0FB0101DA
:10275000059A0023FDF7FCFD049012E043F6040007
:10276000C4F202000068C0F3881042F20041C0F2D7
:10277000F401A0FB0101059A0023FDF7E9FD049097
:10278000FFE743F60400C4F20200006800F44031A1
:10279000022000EBD130039004980399B0FBF1F0D4
:1027A000029005E042F20040C0F2F4000290FFE720
:1027B000029806B080BD000080B586B004900498F1
:1027C00020B9FFE701208DF8170050E30498007846
:1027D000C007002800F0A580FFE743F60800C4F218
:1027E0000200006800F00C00042813D0FFE743F655
:1027F0000800C4F20200006800F00C0008281ED196
:10280000FFE743F60400C4F202000068400200281B
:1028100015D5FFE743F60000C4F20200006800F49B
:1028200000310020B0EB514F08D0FFE7049840681A
:1028300020B9FFE701208DF8170018E370E0FFE7EB
:1028400004984068B0F5803F09D1FFE743F60001E6
:10285000C4F20201086840F48030086020E0049867
:102860004068B0F5A02F0DD1FFE743F60001C4F298
:102870000201086840F480200860086840F4803055
:1028800008600CE043F60001C4F20201086820F47D
:1028900080300860086820F480200860FFE7FFE7C8
:1028A000FFE704984068E8B1FFE7FFF795FC039065
:1028B000FFE743F60000C4F20200006800F40031B4
:1028C0000020B0EB514F0CD1FFE7FFF785FC0399D7
:1028D000401A652804D3FFE703208DF81700C6E2ED
:1028E000E7E71CE0FFF778FC0390FFE743F6000002
:1028F000C4F20200006800F400310020B0EB514F38
:102900000CD0FFE7FFF768FC0399401A652804D351
:10291000FFE703208DF81700A9E2E7E7FFE7FFE7ED
:10292000FFE7049800788007002840F19680FFE7D1
:1029300043F60800C4F20200006810F00C0F13D038
:10294000FFE743F60800C4F20200006800F00C0044
:1029500008282CD1FFE743F60400C4F20200006807
:102960004002002823D4FFE743F60000C4F202002F
:10297000006800F002010020B0EB510F09D0FFE722
:102980000498C068012804D0FFE701208DF81700E3
:102990006DE243F60001C4F20201086820F0F8007D
:1029A000049A126940EAC2000860FFE754E0049804
:1029B000C06870B3FFE70021C4F24721012008601E
:1029C000FFF70AFC0390FFE743F60000C4F20200A1
:1029D000006800F002010020B0EB510F0CD1FFE7BE
:1029E000FFF7FAFB0399401A032804D3FFE70320FB
:1029F0008DF817003BE2E7E743F60001C4F202015D
:102A0000086820F0F800049A126940EAC2000860E1
:102A100021E00021C4F2472100200860FFF7DCFB21
:102A20000390FFE743F60000C4F20200006800F0E4
:102A300002010020B0EB510F0CD0FFE7FFF7CCFBF9
:102A40000399401A032804D3FFE703208DF81700E9
:102A50000DE2E7E7FFE7FFE7FFE7049800780007EC
:102A600000284BD5FFE70498406918B3FFE740F60C
:102A70008061C4F2472101200860FFF7ADFB03909D
:102A8000FFE743F67400C4F20200006800F00201A0
:102A90000020B0EB510F0CD1FFE7FFF79DFB03992E
:102AA000401A032804D3FFE703208DF81700DEE166
:102AB000E7E722E040F68061C4F247210020086089
:102AC000FFF78AFB0390FFE743F67400C4F20200AD
:102AD000006800F002010020B0EB510F0CD0FFE7BE
:102AE000FFF77AFB0399401A032804D3FFE703207A
:102AF0008DF81700BBE1E7E7FFE7FFE704980078F0
:102B00004007002840F1CE80FFE700208DF8070045
:102B100043F64000C4F202000068C000002815D44B
:102B2000FFE7FFE70020009043F64000C4F20200F8
:102B3000016841F080510160006800F08050009011
:102B40000098FFE701208DF80700FFE747F200003B
:102B5000C4F200000068C005002822D4FFE747F255
:102B60000001C4F20001086840F480700860FFF7BB
:102B700033FB0390FFE747F20000C4F20000006857
:102B8000C00500280CD4FFE7FFF726FB0399401A85
:102B9000032804D3FFE703208DF8170067E1EAE775
:102BA000FFE7FFE704988068012809D1FFE743F6B3
:102BB0007001C4F20201086840F0010008601FE0E3
:102BC0000498806805280DD1FFE743F67001C4F230
:102BD0000201086840F004000860086840F0010045
:102BE00008600CE043F67001C4F20201086820F0AE
:102BF00001000860086820F004000860FFE7FFE7B4
:102C0000FFE704988068F8B1FFE7FFF7E5FA039063
:102C1000FFE743F67000C4F20200006800F0020112
:102C20000020B0EB510F0ED1FFE7FFF7D5FA039963
:102C3000401A41F28931884204D3FFE703208DF81E
:102C4000170014E1E5E71EE0FFF7C6FA0390FFE77F
:102C500043F67000C4F20200006800F00201002098
:102C6000B0EB510F0ED0FFE7FFF7B6FA0399401A09
:102C700041F28931884204D3FFE703208DF8170021
:102C8000F5E0E5E7FFE79DF80700012809D1FFE738
:102C900043F64001C4F20201086820F08050086049
:102CA000FFE7FFE704988069002800F0DC80FFE779
:102CB00043F60800C4F20200006800F00C00082887
:102CC00000F08580FFE70498806902285CD1FFE767
:102CD0006021C4F2472100200860FFF77DFA0390CD
:102CE000FFE743F60000C4F20200006800F0007144
:102CF0000020B0EB516F0CD0FFE7FFF76DFA03999E
:102D0000401A032804D3FFE703208DF81700AEE034
:102D1000E7E70499C869D1F820C04B6A8A6A40EA9B
:102D20000C0040EA8310D2034FF6FF739A43A2F5DA
:102D300080321043C96A40EA016043F60401C4F2DC
:102D4000020108606021C4F2472101200860FFF7FA
:102D500043FA0390FFE743F60000C4F20200006864
:102D600000F000710020B0EB516F0CD1FFE7FFF7CE
:102D700033FA0399401A032804D3FFE703208DF8A0
:102D8000170074E0E7E721E06021C4F2472100204A
:102D90000860FFF721FA0390FFE743F60000C4F252
:102DA0000200006800F000710020B0EB516F0CD001
:102DB000FFE7FFF711FA0399401A032804D3FFE74E
:102DC00003208DF8170052E0E7E7FFE74AE0049898
:102DD0008069012804D1FFE701208DF8170046E043
:102DE00043F60400C4F2020000680290049880696F
:102DF000012831D0FFE7029800F480000499C969E6
:102E0000884229D1FFE7029800F03F000499096A3F
:102E1000884221D1FFE7029847F6C0710840049923
:102E2000496AB0EB811F17D1FFE7029800F44030E8
:102E30000499896AC9034FF6FF729143A1F5803165
:102E4000884209D1FFE7029800F070600499C96ACE
:102E5000B0EB016F04D0FFE701208DF8170006E00A
:102E6000FFE7FFE7FFE700208DF81700FFE79DF879
:102E7000170006B080BD000081B0009001B070471F
:102E800081B0009001B0704780B582B0009000988A
:102E900020B9FFE701208DF807003FE0009890F887
:102EA0003D0040B9FFE70099002081F83C00009800
:102EB00000F038F8FFE70099022081F83D00009902
:102EC00051F8040B00F0D0FC0099012081F8460075
:102ED000FFE70099012081F83E00009981F83F004A
:102EE000009981F84000009981F84100FFE7FFE771
:102EF0000099012081F84200009981F8430000996F
:102F000081F84400009981F84500FFE7009901200D
:102F100081F83D0000208DF80700FFE79DF80700CD
:102F200002B080BD81B0009001B0704783B00190C5
:102F3000019890F83D00012804D0FFE701208DF8AA
:102F40000B006AE00199022081F83D0001980168B8
:102F5000C86840F00100C860019800680021C4F210
:102F6000010188423CD0FFE701980068B0F1804F32
:102F700036D0FFE70198006840F20041C4F200013A
:102F800088422DD0FFE70198006840F60001C4F2A6
:102F90000001884224D0FFE70198006840F6004114
:102FA000C4F2000188421BD0FFE70198006840F29C
:102FB0000041C4F20101884212D0FFE70198006885
:102FC00044F20001C4F20101884209D0FFE70198F0
:102FD000006841F60001C4F20001884212D1FFE707
:102FE00001980068806800F00700009000980628AB
:102FF00007D0FFE701980168086840F00100086009
:10300000FFE706E001980168086840F001000860E9
:10301000FFE700208DF80B00FFE79DF80B0003B0E1
:103020007047000081B0009001B0704780B584B057
:10303000039003980068C0680290039800680069D4
:1030400001909DF804008007002824D5FFE79DF833
:103050000800800700281DD5FFE7039801686FF07E
:1030600002000861039901200877039800688069CD
:10307000800720B1FFE70398FFF7D4FF06E003982D
:1030800000F0E2F8039800F0E3F8FFE7039900206E
:103090000877FFE7FFE79DF804004007002825D5E3
:1030A000FFE79DF80800400700281ED5FFE70398BA
:1030B00001686FF004000861039902200877039803
:1030C0000068806910F4407F04D0FFE70398FFF7A1
:1030D000A9FF06E0039800F0B7F8039800F0B8F8ED
:1030E000FFE7039900200877FFE7FFE79DF804005A
:1030F0000007002824D5FFE79DF8080000070028F6
:103100001DD5FFE7039801686FF008000861039977
:103110000420087703980068C069800720B1FFE7A2
:103120000398FFF77FFF06E0039800F08DF80398FF
:1031300000F08EF8FFE7039900200877FFE7FFE72C
:103140009DF80400C006002825D5FFE79DF808007B
:10315000C00600281ED5FFE7039801686FF0100035
:10316000086103990820087703980068C06910F483
:10317000407F04D0FFE70398FFF754FF06E0039871
:1031800000F062F8039800F063F8FFE7039900206D
:103190000877FFE7FFE79DF80400C00778B1FFE775
:1031A0009DF80800C00748B1FFE7039801686FF079
:1031B00001000861039800F04FF8FFE7FFE79DF872
:1031C00004000006002810D5FFE79DF8080000065F
:1031D000002809D5FFE7039801686FF080000861B7
:1031E0000398FFF749FEFFE7FFE79DF8040040065C
:1031F000002810D5FFE79DF808004006002809D5F3
:10320000FFE7039801686FF040000861039800F041
:1032100033F8FFE7FFE79DF804008006002810D58B
:10322000FFE79DF808008006002809D5FFE703980E
:1032300001686FF0200008610398FFF721FEFFE7A7
:10324000FFE704B080BD000081B0009001B070477E
:1032500081B0009001B0704780B582B001900198B4
:1032600000680021C4F20101884203D1FFE7FEF7A4
:10327000B9FFFFE702B080BD81B0009001B0704798
:1032800080B582B00090009820B9FFE701208DF84A
:10329000070040E00098806908B1FFE700E0FFE721
:1032A000009890F8410040B9FFE70099002081F8AC
:1032B0004000009800F034F8FFE70099242081F8DE
:1032C000410000980168C86820F40050C860009868
:1032D00000F0ECFB00980168086920F49040086158
:1032E00000980168486920F02A0048610098016848
:1032F000C86840F40050C860009900204864009AF3
:10330000202182F84110009A82F842100099486307
:103310008DF80700FFE79DF8070002B080BD0000B0
:1033200080B588B007900020069005900490039027
:1033300002900798006841F20001C4F2010188423E
:1033400034D1FFE7FFE70020019043F64400C4F2C8
:103350000200016841F010010160006800F01000F7
:1033600001900198FFE7FFE70020009043F630004E
:10337000C4F20200016841F001010160006800F040
:10338000010000900098FFE74FF4C0600290022017
:103390000390002004900320059007200690002051
:1033A000C4F2020002A9FEF70BFDFFE708B080BDE2
:1033B00080B58AB008900791ADF81A2005930020D7
:1033C0000290089890F84100202840F08180FFE7A3
:1033D000079820B1FFE7BDF81A0020B9FFE70120E8
:1033E0008DF8270078E0089900204864089921208A
:1033F00081F84100FEF7F0FE0290BDF81A0008992E
:103400008884BDF81A000899C88408988068B0F5C7
:10341000805F09D1FFE70898006928B9FFE700201D
:1034200004900798039004E007980490002003900C
:10343000FFE7FFE70898C08C78B3FFE70898029B86
:1034400005996A4611608021002200F0CDFB40B151
:10345000FFE70899202081F8410003208DF827001C
:103460003AE0049858B9FFE7039800886FF35F20AB
:1034700008990968486003980230039008E00498AE
:103480000078089909684860049801300490FFE7C3
:103490000899C88C0138C884CCE70898029B059924
:1034A0006A4611604021002200F09EFB40B1FFE718
:1034B0000899202081F8410003208DF827000BE0B7
:1034C0000899202081F8410000208DF8270003E0B2
:1034D00002208DF82700FFE79DF827000AB080BD85
:1034E000FFE7FEE710B588B046F2F030C0F6000006
:1034F000016842688368D0F80CC0D0F810E04469D5
:103500000694CDF814E0CDF810C003930292019117
:103510008069079001A8002100F002FD40F28C11A3
:10352000C2F20001086008B010BD000080B58CB088
:1035300000200B900A90099008900790FFE7002068
:10354000069043F63000C4F20200016841F08001A9
:103550000160006800F0800006900698FFE7FFE732
:103560000020059043F63000C4F20200016841F0EB
:1035700004010160006800F0040005900598FFE771
:10358000FFE70020049043F63000C4F20200016817
:1035900041F001010160006800F00100049004980E
:1035A000FFE70020C4F2020002904FF48071009106
:1035B00000220192FEF7F8FD01984FF44071079147
:1035C0000890099040F60000C4F2020007A9039198
:1035D000FEF7F6FB009B019A0298039907930123DB
:1035E000089309920A92FEF7EBFB0CB080BD000035
:1035F00080B582B040F2D810C2F20000019041F2D2
:103600000001C4F2010101604FF4E1314160002189
:103610008160C16001610C2242618161C161FFF77B
:103620002FFE18B1FFE7FEF7C7FBFFE702B080BD32
:10363000FFE7FEE7FFE7FEE788B0079006910592F7
:10364000079800F0070004900498C0F107000528CF
:1036500003D3FFE70420019004E00498C0F10700C1
:103660000190FFE70198039004980430062803D8DE
:10367000FFE70020009003E0049803380090FFE784
:103680000098029006980399012202FA01F101398B
:103690000840029B984005999A40013A114008431E
:1036A00008B07047000000000000000000000000AB
:1036B000EFF30980BFF36F8F154B1A681EF0100FE0
:1036C00008BF20ED108A20E9F04F10602DE90900B5
:1036D0004FF0500080F31188BFF34F8FBFF36F8F0F
:1036E00001F086FD4FF0000080F31188BDE809006D
:1036F00019680868B0E8F04F1EF0100F08BFB0EC72
:10370000108A80F30988BFF36F8F704700BF00BF36
:103710002002002000000000000000000000000067
:10372000074B19680868B0E8F04F80F30988BFF3C9
:103730006F8F4FF0000080F31188704700BF00BF0B
:103740002002002081B00090FFE7FEE780B582B044
:103750004FF0500080F31188BFF36F8FBFF34F8F8E
:10376000009001F0A1FF40B1FFE74EF60451CEF208
:1037700000014FF080500860FFE7002001900198A1
:1037800080F3118802B080BD80B594B008A83021C4
:10379000FCF762FE002007900690059004900390CD
:1037A000FFE70020029043F64000C4F202000168E7
:1037B00041F080510160006800F080500290029852
:1037C000FFE7FFE70020019047F20000C4F200008D
:1037D000016841F480410160006800F4804001907C
:1037E0000198FFE70220089001210B9110210C9114
:1037F0000E9000210F9108211091A8211191129093
:103800000420139008A8FEF7D7FF18B1FFE7FEF7D2
:10381000D3FAFFE70F2003900220049000200590C8
:103820004FF4A05006904FF48050079003A8052154
:10383000FEF7C8FD18B1FFE7FEF7BEFAFFE714B0C8
:1038400080BD00004EF68851CEF20001086840F4B9
:10385000700008607047000080B540F29010C2F21E
:103860000000FFF7E3FB80BD83B002900191029856
:103870000068009002980021C4F20101884225D01E
:10388000FFE70298B0F1804F20D0FFE7029840F2A6
:103890000041C4F20001884218D0FFE7029840F6C8
:1038A0000001C4F20001884210D0FFE7029840F600
:1038B0000041C4F20001884208D0FFE7029840F2BC
:1038C0000041C4F2010188420AD1FFE7009820F0CC
:1038D0007000009001984168009808430090FFE74D
:1038E00002980021C4F20101884255D0FFE70298F6
:1038F000B0F1804F50D0FFE7029840F20041C4F28F
:103900000001884248D0FFE7029840F60001C4F267
:103910000001884240D0FFE7029840F60041C4F21F
:103920000001884238D0FFE7029840F20041C4F21B
:103930000101884230D0FFE7029844F20001C4F24E
:103940000101884228D0FFE7029844F20041C4F206
:103950000101884220D0FFE7029844F60001C4F23A
:103960000101884218D0FFE7029841F60001C4F235
:103970000001884210D0FFE7029841F60041C4F2EE
:103980000001884208D0FFE7029842F20001C4F229
:10399000000188420AD1FFE7009820F440700090AF
:1039A0000198C168009808430090FFE7009820F054
:1039B00080000199496908430090009802990860C5
:1039C000019880680299C86201980068029988622B
:1039D00002980021C4F20101884208D0FFE7029852
:1039E00040F20041C4F20101884205D1FFE701988D
:1039F000006902990863FFE7029901204861029873
:103A00000069C00730B1FFE70299086920F00100A2
:103A10000861FFE703B0704784B00390FFE7FFE75A
:103A20000398006850E8030F20F490700290FFE7BD
:103A300002990398026842E803100028F0D1FFE7DA
:103A4000FFE7FFE7FFE70398006850E8050F20F065
:103A500001000190FFE701990398026842E8051010
:103A60000028F0D1FFE7FFE70398006B012814D18D
:103A7000FFE7FFE7FFE70398006850E8030F20F037
:103A800010000090FFE700990398026842E80310D5
:103A90000028F0D1FFE7FFE7FFE70399202081F836
:103AA000420003990020086304B0704780B586B0D7
:103AB000059005980068006920F44050059A116847
:103AC000D26810430861059988680B694A69C96919
:103AD000184310430843049005980068C06849F2F1
:103AE0000C6188430499084305990968C8600598E2
:103AF0000068406920F44070059A1168926910438B
:103B000048610598006841F20001C4F20101884251
:103B100009D0FFE70598006841F20041C4F20101B5
:103B2000884204D1FFE7FEF7C1FD039003E0FEF7F2
:103B3000ABFD0390FFE70598C069B0F5004F29D1B0
:103B4000FFE703981921A0FB0101059A136802936E
:103B500053685A00DB0FFCF7FBFB0299864648F2DC
:103B60001F53C5F2EB13AEFB0320420910014FF0C7
:103B7000640C02FB1CEC322202EBCC02A2FB0332EF
:103B8000F82303EA521300EB4300C2F3421210443D
:103B9000886026E003981921A0FB0101059A1368AB
:103BA000019353689A009B0FFCF7D2FB019984465E
:103BB00048F21F52C5F2EB12ACFB023043096420FD
:103BC00003FB10CC322000EB0C10A0FB0202F02013
:103BD00000EA521000EB0310C2F343121044886055
:103BE000FFE706B080BD000080B586B0DDF820C0DC
:103BF000049003918DF80B200193FFE7049800686F
:103C0000006803990840401AB0FA80F040099DF816
:103C10000B1088424DD1FFE708980130002847D0AB
:103C2000FFE7FEF7D9FA0199401A0899884203D8AC
:103C3000FFE7089820B9FFE703208DF817003CE064
:103C400004980068C0684007002830D5FFE7039853
:103C500080282CD0FFE70398402828D0FFE704985D
:103C60000068006800F008010120B0EBD10F1DD101
:103C7000FFE7FFE7002000900498006800680090CC
:103C800004980068406800900098FFE70498FFF7E8
:103C9000C3FE049908204864FFE70499002081F8D6
:103CA0004000FFE701208DF8170006E0FFE7FFE77F
:103CB000A4E700208DF81700FFE79DF8170006B075
:103CC00080BD0000FFE7FEE781B08DF803009DF99D
:103CD000030000280ED4FFE79DF9031001F01F0236
:103CE000012090404A094EF20011CEF2000141F845
:103CF0002200FFE701B070474EF60C50CEF20000F4
:103D00000068C0F30220704782B08DF80700009170
:103D10009DF9070000280AD4FFE7009800019DF9EB
:103D200007104EF20042CEF2000288540BE00098D9
:103D300000019DF8071001F00F014EF61452CEF26B
:103D400000028854FFE702B07047000083B0029081
:103D5000029800F0070000904EF60C51CEF20001E0
:103D60000868019001984FF6FF02104001900198F9
:103D7000009A40EA02200022C0F2FA521043019059
:103D80000198086003B0704780B582B0019000913F
:103D900040F2D810C2F2000001A901224FF6FF73D1
:103DA000FFF706FB019802B080BD000080B582B02D
:103DB0000190FFE740F60000C4F202004FF40071EA
:103DC000FEF7DAF901280ED1FFE740F28010C2F2C7
:103DD0000000006801F056F946F25840C0F60000B5
:103DE000FCF72EFBFFE740F60000C4F202004FF4A0
:103DF0008071FEF7C1F901280ED1FFE740F2801073
:103E0000C2F20000006801F071F846F26B40C0F6A3
:103E10000000FCF715FBFFE7142000F08FFFC9E757
:103E200080B582B00190FFE700F022F846F24E40E4
:103E3000C0F60000FCF704FB4FF4FA70009000F0AD
:103E40007DFF00F00BF846F22440C0F60000FCF7BE
:103E5000F7FA009800F072FFE6E7000080B5002056
:103E6000C4F202004FF480710022FEF79DF980BD7C
:103E700080B50020C4F202004FF480710122FEF7E9
:103E800093F980BD80B586B0002003900590012095
:103E90000490FEF7B5F9FFF777FCFFF747FBFFF754
:103EA000A7FB039B40F28410C2F200006946486001
:103EB0000220086044F6A110C0F6000046F243411B
:103EC000C0F600014FF4007201F036FB039A0A209D
:103ED000082101F099FA40F28811C2F2000108604D
:103EE000FFF700FB00F016F8FFE7FEE782B0ADF841
:103EF000060000200090BDF90600842807D0FFE7E7
:103F0000BDF906000099084403300090FFE70098CF
:103F100002B0704780B501F04DF8002080BD000070
:103F2000B0B590B00E900D910E98406938B3FFE790
:103F30000E98806918B3FFE70E98016808914168F0
:103F40000B91016909910D990A91B0F90800FFF7E9
:103F5000CDFF0899099A0A9B84460B98DDF838E052
:103F6000DEF81440DEF81850EE46CEF80850CEF8D1
:103F70000440CEF800C001F02FFB0C9020E00E981A
:103F80000168049141680791018A05910D99069194
:103F9000B0F90800FFF7AAFF0499059A069B84462A
:103FA0000798EE460CACCEF80440CEF800C001F005
:103FB000C3FA012803D0FFE700200F9003E0FFE7DA
:103FC0000C980F90FFE70F9810B0B0BD80B584B08B
:103FD0000390029144F2C410C2F200000068009005
:103FE00040F22020C2F200000068043000F012FD10
:103FF00088B9FFE740F22020C2F200000068C16AE1
:10400000012000FA01F243F6D861C2F2000108680B
:104010009043086000E0FFE70398013080B9FFE7B4
:10402000029868B1FFE740F22020C2F20000006869
:10403000011D44F29C10C2F2000000F07BFD3DE047
:104040000098039908440190019840F22021C2F29F
:104050000001096848600198009988420ED2FFE784
:1040600040F22C20C2F20000006840F22021C2F28F
:1040700000010968043100F027FD1EE040F2242011
:10408000C2F20000006840F22021C2F2000109687B
:10409000043100F019FD019844F26811C2F20001E8
:1040A0000968884207D2FFE7019844F26811C2F21A
:1040B0000001086000E0FFE7FFE7FFE704B080BD14
:1040C00080B582B0019000F05DFD43F6C861C2F298
:1040D000000108680130086040F22020C2F20000B0
:1040E000006898B9FFE7019840F22021C2F2000170
:1040F000086043F6C860C2F200000068012803D1DE
:10410000FFE700F0E7F900E0FFE71CE044F2901061
:10411000C2F200000068A0B9FFE740F22020C2F21E
:1041200000000068C06A0199C96A884207D8FFE7A1
:10413000019840F22021C2F20001086000E0FFE790
:1041400000E0FFE7FFE743F6D461C2F20001086830
:10415000013008600198C16A012000FA01F243F6BB
:10416000D861C2F200010868104308600199C86A6A
:1041700000EB800240F23020C2F2000000EB82002F
:10418000043100F0D7FC00F029FD44F29010C2F297
:1041900000000068C8B1FFE740F22020C2F2000032
:1041A0000068C06A0199C96A88420CD2FFE74EF6DE
:1041B0000451CEF200014FF080500860BFF34F8FE2
:1041C000BFF36F8F00E0FFE700E0FFE702B080BDC4
:1041D00080B582B0FFE743F6CC60C2F20000006811
:1041E00008B3FFE700F0CEFC44F2B010C2F20000CA
:1041F000C068C06801900198043000F00BFC43F6E1
:10420000C861C2F2000108680138086043F6CC6159
:10421000C2F2000108680138086000F0DFFC019874
:1042200000F004F8D7E702B080BD000080B582B08E
:104230000090009890F8510040B9FFE70098006B9B
:1042400000F0F2FC009800F0EFFC1CE0009890F801
:104250005100012804D1FFE7009800F0E5FC11E0CF
:10426000009890F8510002280BD0FFE74FF0500063
:1042700080F31188BFF36F8FBFF34F8F0190FFE77B
:10428000FEE7FFE7FFE702B080BD000084B04FF417
:104290007050009040F2BC20C2F2000001909DF8E6
:1042A0000400400788B1FFE70198073001900198AA
:1042B00020F007000190019A40F2BC21C2F20001F7
:1042C0000098891A08440090FFE70198029002992B
:1042D00044F29410C2F20000016000214160029893
:1042E000009A10440190019808380190019820F03C
:1042F00007000190019A40F22820C2F200000260FB
:104300000268516002681160029903910199039A51
:10431000891A51600068039908600398406844F264
:104320006411C2F2000108600398406843F6087106
:10433000C2F20001086043F6DC61C2F200014FF0F6
:104340000040086004B0704780B582B00190FFE77C
:10435000FFF73EFF40F23020C2F200000068022862
:104360000CD3FFE74EF60451CEF200014FF080501F
:104370000860BFF34F8FBFF36F8F00E0FFE7E7E701
:1043800080B584B0DDF818C00390029101928DF8D9
:104390000330029818B9FFE70698006003E001981F
:1043A00006990860FFE703980699C8630298069982
:1043B00008640698012101F061F804B080BD000096
:1043C00080B588B0DDF834C0DDF830C0DDF82CC031
:1043D000DDF828C006900591049203930C98006BB9
:1043E000049900EB810004380290029820F0070045
:1043F00002909DF80800400758B1FFE74FF05000C9
:1044000080F31188BFF36F8FBFF34F8F0790FFE7E3
:10441000FEE70598F8B1FFE700200190FFE701985B
:104420000F2813D8FFE70598019A805C0C99114476
:1044300081F8340005980199405C08B9FFE705E070
:10444000FFE7FFE7019801300190E8E70C990020B1
:1044500081F8430004E00C99002081F83400FFE764
:104460000A98072803D3FFE706200A9000E0FFE739
:104470000A980C99C8620A980C9948640C99002013
:10448000009088640C98043000F016FB0C981830EB
:1044900000F012FB00980C9909610A99C1F107011B
:1044A0000C9A91610C9949620C99C8640C9981F835
:1044B000500002980699039A00F042FA0C9908609D
:1044C0000B9820B1FFE70C980B99086000E0FFE71C
:1044D00008B080BD80B584B000200390FFE703984A
:1044E000062810D8FFE7039800EB800140F2302047
:1044F000C2F2000000EB810000F0C6FAFFE703986B
:1045000001300390EBE743F6E060C2F20000019057
:1045100000F0BAFA43F6F460C2F20000029000F034
:10452000B3FA44F27C10C2F2000000F0ADFA44F29B
:10453000B010C2F2000000F0A7FA44F29C10C2F2E0
:10454000000000F0A1FA0199029840F22422C2F280
:104550000002116040F22C21C2F20001086004B098
:1045600080BD000083B0029044F29410C2F20000BB
:104570000190FFE7019800680299884205D2FFE7A1
:10458000FFE7019800680190F4E701980090009817
:104590000199496808440299884209D1FFE70298C5
:1045A000426801994868104448600198029000E010
:1045B000FFE7029800900098029949680844019921
:1045C0000968884220D1FFE70198006840F228215D
:1045D000C2F20001096888420DD0FFE70198006827
:1045E0004268029948681044486001980068006871
:1045F0000299086007E040F22820C2F2000000683B
:1046000002990860FFE704E00198006802990860D9
:10461000FFE701980299884204D0FFE702980199C8
:10462000086000E0FFE703B070470000084800683A
:10463000006880F308884FF0000080F3148862B6A9
:1046400061B6BFF34F8FBFF36F8F00DF00BF000075
:1046500008ED00E081B040F22420C2F200000068C2
:10466000006840B9FFE744F26811C2F200014FF060
:10467000FF3008600FE040F22420C2F20000006822
:10468000C068C06800900098406844F26811C2F2A7
:1046900000010860FFE701B07047000083B0002010
:1046A000009040F21800C2F200000068013058B1DA
:1046B000FFE74FF0500080F31188BFF36F8FBFF317
:1046C0004F8F0290FFE7FEE74FF0500080F3118814
:1046D000BFF36F8FBFF34F8F0190FFE7009808B9CA
:1046E000FFE7FBE703B0704784B002900020019021
:1046F00002980090029858B9FFE74FF0500080F3FD
:104700001188BFF36F8FBFF34F8F0390FFE7FEE772
:104710000098406944F29C11C2F20001884214D111
:10472000FFE70098806A44F27C11C2F200018842DF
:1047300009D0FFE70098806A18B9FFE701200190CF
:1047400000E0FFE700E0FFE700E0FFE7019804B0CA
:104750007047000080B58AB006900020029000F0FB
:104760003FFD40F22820C2F20000006818B9FFE7C0
:10477000FFF78CFD00E0FFE7069843F6DC61C2F22C
:1047800000010968084240F0C580FFE7069800B3C1
:10479000FFE70698083006909DF818004007B0B172
:1047A000FFE7069820F00700083006909DF81800F3
:1047B000400758B1FFE74FF0500080F31188BFF376
:1047C0006F8FBFF34F8F0990FFE7FEE700E0FFE731
:1047D00000E0FFE70698002800F09A80FFE70698BF
:1047E00043F60871C2F200010968884200F2908025
:1047F000FFE744F29410C2F20000049000680590B4
:10480000FFE705984168069A00209142019007D27F
:10481000FFE705980068002818BF01200190FFE716
:104820000198C00730B1FFE705980490059800682B
:104830000590E6E7059840F22821C2F200010968D8
:10484000884263D0FFE7049800680830029005981A
:10485000006804990860059840680699401A112874
:1048600021D3FFE705980699084403909DF80C00B2
:10487000400758B1FFE74FF0500080F31188BFF3B5
:104880006F8FBFF34F8F0890FFE7FEE705984068F2
:104890000699401A0399486006980599486003985C
:1048A000FFF760FE00E0FFE70598426843F60870F6
:1048B000C2F200000168891A0160006844F26411C4
:1048C000C2F20001096888420BD2FFE743F6087084
:1048D000C2F20000006844F26411C2F200010860F4
:1048E00000E0FFE743F6DC60C2F2000002680599D1
:1048F00048681043486005990020086044F2701130
:10490000C2F2000108680130086000E0FFE700E043
:10491000FFE700E0FFE701F005F89DF80800400719
:1049200058B1FFE74FF0500080F31188BFF36F8F4D
:10493000BFF34F8F0790FFE7FEE702980AB080BDF4
:1049400083B002900191009202980438029002997B
:104950004FF080700860029804380290019820F0AF
:10496000010002990860029804380290029944F20A
:104970009D60C0F60000086002981438029000980C
:104980000299086002980438029002996FF00200C0
:104990000860029820380290029803B07047000027
:1049A00080B586B0059040F28010C2F200006946E2
:1049B000486003200490086043F62160C0F60000C0
:1049C00046F22F41C0F600014FF40072029200231C
:1049D000039300F0B1FD029A039B049840F27C1C03
:1049E000C2F2000C6946C1F804C0086043F6AD503D
:1049F000C0F6000046F23941C0F6000100F09CFD0F
:104A000040F28410C2F20000006800F0CFF906B056
:104A100080BD000082B0019001980069009001986B
:104A20004168806888600199486889684860009892
:104A300040680199884205D1FFE701988068009994
:104A4000486000E0FFE701990020086100990868CC
:104A5000013808600098006802B0704783B0029087
:104A600001910092029944F21010C2F20000086015
:104A7000019943F60C70C2F2000008600099802092
:104A8000086003B07047000081B00090009901F108
:104A90000800486000994FF0FF308860009901F1EC
:104AA0000800C860009901F1080008610099002021
:104AB000086001B07047000081B0009000990020AC
:104AC000086101B07047000084B003900291029821
:104AD000006800900098013020B9FFE70398006952
:104AE000019010E0039808300190FFE701984068BA
:104AF00000680099884205D8FFE7FFE70198406801
:104B00000190F3E7FFE70198406802994860029836
:104B1000416888600198029988600298019948600C
:104B2000039802990861039908680130086004B08D
:104B30007047000083B00290019102984068009095
:104B400000980199486000988068019988600198F0
:104B500000998968486001980099886002980199D5
:104B60000861029908680130086003B070470000CE
:104B7000DFF80C00016841F470010160704700002B
:104B800088ED00E082B04FF0500080F31188BFF351
:104B90006F8FBFF34F8F019040F21800C2F20000F8
:104BA0000168013101600068012814D1FFE74EF669
:104BB0000450CEF200000068000658B1FFE74FF045
:104BC000500080F31188BFF36F8FBFF34F8F0090B9
:104BD000FFE7FEE7FFE702B07047000082B040F257
:104BE0001800C2F20000006858B9FFE74FF050000B
:104BF00080F31188BFF36F8FBFF34F8F0090FFE7F3
:104C0000FEE740F21800C2F20000016801390160BD
:104C1000006830B9FFE700200190019880F3118807
:104C2000FFE702B07047000080B586B0039003989C
:104C30000290039800285CD0FFE7029808380290A1
:104C4000029801900198406843F6DC61C2F20001CD
:104C5000096808420BD1FFE74FF0500080F311883C
:104C6000BFF36F8FBFF34F8F0590FFE7FEE701980B
:104C7000006858B1FFE74FF0500080F31188BFF390
:104C80006F8FBFF34F8F0490FFE7FEE701984068F6
:104C900043F6DC61C2F200010968084227D0FFE751
:104CA0000198006808BBFFE743F6DC60C2F2000031
:104CB0000268019948689043486000F091FA0198B1
:104CC000426843F60871C2F20001086810440860A7
:104CD0000198FFF747FC44F27411C2F20001086822
:104CE0000130086000F01EFE00E0FFE700E0FFE793
:104CF000FFE706B080BD00004EF21001CEF20001C9
:104D0000002008604EF21802CEF20002106040F25D
:104D10000C00C2F20000006844F6D352C1F26202F5
:104D2000A0FB02024FF0FF3000EB92104EF2140293
:104D3000CEF20002106007200860704780B584B092
:104D40000290002001900298E0B1FFE743F6D060A6
:104D5000C2F20000006858B1FFE74FF0500080F346
:104D60001188BFF36F8FBFF34F8F0390FFE7FEE70C
:104D700000F036FA02980021FFF728F900F0D2FD82
:104D8000019000E0FFE7019860B9FFE74EF604519B
:104D9000CEF200014FF080500860BFF34F8FBFF399
:104DA0006F8F00E0FFE704B080BD000080B584B0E5
:104DB0000290FFF7E7FE029838B9FFE740F22020A3
:104DC000C2F200000068009002E002980090FFE745
:104DD0000098019001980430FFF71CFED0B9FFE75E
:104DE0000198C06A00EB800140F23020C2F200005E
:104DF00050F8210068B9FFE70198C16A012000FA64
:104E000001F243F6D861C2F20001086890430860DD
:104E1000FFE700E0FFE70198806A28B1FFE701980B
:104E20001830FFF7F7FD00E0FFE743F6D461C2F268
:104E30000001086801300860019840F22021C2F2A8
:104E400000010968884210D1FFE70198011D44F272
:104E5000B010C2F20000FFF76DFE43F6CC61C2F263
:104E600000010868013008600CE043F6C861C2F236
:104E700000010868013808600198FFF7D7F9FFF7CB
:104E8000E9FBFFE7FFF7AAFE44F29010C2F2000030
:104E9000006848B3FFE7019840F22021C2F2000108
:104EA000096888421ED1FFE743F6D060C2F20000D5
:104EB000006858B1FFE74FF0500080F31188BFF34E
:104EC0006F8FBFF34F8F0390FFE7FEE74EF604515D
:104ED000CEF200014FF080500860BFF34F8FBFF358
:104EE0006F8F00E0FFE7FFE704B080BD80B584B0BE
:104EF000029002980190029858B9FFE74FF05000D5
:104F000080F31188BFF36F8FBFF34F8F0390FFE7DC
:104F1000FEE7019840F22021C2F2000109688842B0
:104F200045D0FFE70198002841D0FFE7FFF72AFEB0
:104F30000198FFF7D9FBB0B3FFE701980430FFF702
:104F400069FD0198C16A012000FA01F243F6D861B7
:104F5000C2F200010868104308600199C86A00EBBA
:104F6000800240F23020C2F2000000EB82000431E7
:104F7000FFF7E0FD0198C06A40F22021C2F2000173
:104F80000968C96A88420CD3FFE74EF60451CEF295
:104F900000014FF080500860BFF34F8FBFF36F8F59
:104FA00000E0FFE700E0FFE7FFF718FE00E0FFE7A3
:104FB00004B080BD80B58AB00020039006900590B3
:104FC00006A805A904AAFFF749FD039B049A0599C1
:104FD000DDF818C06846C0F808C04160036044F2BC
:104FE0004930C0F6000046F28D41C0F6000100F0E5
:104FF000F3FA014644F20C10C2F2000001600068AE
:1050000018B1FFE70120079002E000200790FFE7BA
:105010000798012823D1FFE74FF0500080F3118853
:10502000BFF36F8FBFF34F8F099044F26811C2F244
:1050300000014FF0FF30086044F29011C2F200010D
:105040000120086044F2C411C2F20001002008608F
:1050500000F02EF908B1FFE700E0FFE70FE0079846
:10506000013058B9FFE74FF0500080F31188BFF3CB
:105070006F8FBFF34F8F0890FFE7FEE7FFE70AB09F
:1050800080BD000080B584B00290FFF77BFD0298E0
:1050900038B9FFE740F22020C2F20000006800901B
:1050A00002E002980090FFE7009801900198043018
:1050B000FFF7B0FCD0B9FFE70198C06A00EB8001B0
:1050C00040F23020C2F2000050F8210068B9FFE73A
:1050D0000198C16A012000FA01F243F6D861C2F2D8
:1050E0000001086890430860FFE700E0FFE70198CF
:1050F000806A28B1FFE701981830FFF78BFC00E0C9
:10510000FFE70198011D44F29C10C2F20000FFF776
:1051100011FD019890F85000012805D1FFE7019991
:10512000002081F85000FFE7FFF758FD44F290108F
:10513000C2F20000006838B1FFE7FFF723FDFFF778
:1051400089FAFFF74BFD00E0FFE7019840F22021CC
:10515000C2F20001096888423ED1FFE744F2901094
:10516000C2F200000068F0B1FFE743F6D060C2F27F
:105170000000006858B1FFE74FF0500080F311883D
:10518000BFF36F8FBFF34F8F0390FFE7FEE74EF63D
:105190000451CEF200014FF080500860BFF34F8FF2
:1051A000BFF36F8F17E044F29C10C2F2000000685A
:1051B00043F6C861C2F200010968884207D1FFE7DF
:1051C00040F22021C2F200010020086002E000F05D
:1051D0000FF8FFE7FFE700E0FFE704B080BD000045
:1051E00043F6D061C2F200010868013008607047E0
:1051F00085B043F6D060C2F20000006838B1FFE726
:1052000044F2C811C2F20001012008604DE044F2EE
:10521000C811C2F200010020086043F6D860C2F253
:105220000000006804900498B0FA80F08DF80F0038
:105230009DF80F00C0F11F000190019800EB800164
:1052400040F23020C2F2000050F8210058B9FFE7C8
:105250004FF0500080F31188BFF36F8FBFF34F8F73
:105260000290FFE7FEE7019800EB800140F230205A
:10527000C2F2000000EB810000900099486840688D
:105280004860009948680831884205D1FFE70099D5
:10529000486840684860FFE700984068C06840F28E
:1052A0002021C2F200010860FFE705B0704700004E
:1052B00080B588B04EF60050CEF2000000684CF287
:1052C0007121C4F20F1188420BD1FFE74FF050005B
:1052D00080F31188BFF36F8FBFF34F8F0790FFE705
:1052E000FEE74EF60050CEF2000000684CF270214E
:1052F000C4F20F1188420BD1FFE74FF0500080F34A
:105300001188BFF36F8FBFF34F8F0690FFE7FEE763
:105310004EF20040CEF20000039001780491FF218C
:10532000017000788DF80B009DF80B0000F0500024
:1053300043F6BC61C2F20001087043F6C061C2F2DC
:10534000000107200860FFE79DF80B000006002819
:105350000DD5FFE743F6C061C2F2000108680138CD
:1053600008609DF80B0040008DF80B00ECE743F659
:10537000C060C2F20000006803280BD0FFE74FF0C6
:10538000500080F31188BFF36F8FBFF34F8F0590EC
:10539000FFE7FEE743F6C061C2F2000108680002C1
:1053A0000860086800F4E060086004984EF200416C
:1053B000CEF2000108704EF62051CEF200010868CE
:1053C00040F470000860086840F070400860FFF723
:1053D00093FC40F21801C2F2000100200190086025
:1053E000FFF7C6FB4EF63471CEF20001086840F0BC
:1053F00040400860FFF71AF9FFF7FAFEFFF74EF991
:10540000019808B080BD000080B588B00690059175
:105410008DF81320069858B9FFE74FF0500080F33D
:105420001188BFF36F8FBFF34F8F0790FFE7FEE741
:10543000069805994843029002984830FFF78AF988
:1054400003900398B0B1FFE70398019001984830AA
:1054500001900399002081F8460006980599019A69
:105460009DF81330DDF80CC0EE46CEF800C0FEF714
:1054700087FF00E0FFE7039808B080BD80B584B0E7
:105480000290019102980090009858B9FFE74FF000
:10549000500080F31188BFF36F8FBFF34F8F0390DD
:1054A000FFE7FEE7FFF76EFB00990B68C86B0A6C1D
:1054B00000FB02308860009900208863009908682A
:1054C000486000990B68C86B0A6C013800FB023019
:1054D000C8600099FF2081F84400009981F84500D8
:1054E0000198D0B9FFE700980069A0B1FFE70098E4
:1054F000103000F0B5F960B1FFE74EF60451CEF27E
:1055000000014FF080500860BFF34F8FBFF36F8FE3
:1055100000E0FFE700E0FFE708E000981030FFF749
:10552000B3FA00982430FFF7AFFAFFE7FFF756FB16
:10553000012004B080BD000070B58CB0DDF844C01F
:10554000DDF840C00B900A91ADF826200893BDF815
:1055500026008000FFF7FEF80590059880B1FFE770
:105560005420FFF7F7F80790079820B1FFE7059858
:105570000799086303E00598FFF756FBFFE702E091
:1055800000200790FFE70798F0B1FFE70798002693
:1055900080F851600B980A99BDF82620089BDDF829
:1055A00040C0119C079DEE46CEF80C60CEF8085026
:1055B000CEF80440CEF800C0FEF702FF0798FEF7D1
:1055C0007FFD0120069003E04FF0FF300690FFE7DB
:1055D00006980CB070BD0000B0B58EB0DDF850C0BC
:1055E000DDF84CC0DDF848C00A9009910892079395
:1055F000139858B9FFE74FF0500080F31188BFF3BC
:105600006F8FBFF34F8F0D90FFE7FEE7149858B9E7
:10561000FFE74FF0500080F31188BFF36F8FBFF3A7
:105620004F8F0C90FFE7FEE7542004900498542815
:105630000BD0FFE74FF0500080F31188BFF36F8F5E
:10564000BFF34F8F0B90FFE7FEE70498149820B349
:10565000FFE7139808B3FFE714980690139806998C
:1056600008630699022081F851000A980999089A5E
:10567000079BDDF848C0069CEE460025CEF80C508E
:10568000CEF8084005ACCEF80440CEF800C0FEF7D6
:1056900097FE0698FEF714FD02E000200590FFE754
:1056A00005980EB0B0BD000080B586B00020029015
:1056B00043F6D060C2F200000068002840F0C580C8
:1056C000FFE744F2C411C2F2000108680130019002
:1056D00001980860019858BBFFE740F22420C2F20D
:1056E00000000068006858B1FFE74FF0500080F3F9
:1056F0001188BFF36F8FBFF34F8F0590FFE7FEE771
:1057000040F22422C2F200021068009040F22C21E4
:10571000C2F20001086810600098086044F26C1141
:10572000C2F20001086801300860FEF793FF00E054
:10573000FFE7019844F26811C2F20001096888424B
:1057400062D3FFE7FFE740F22420C2F200000068C6
:10575000006840B9FFE744F26811C2F200014FF05F
:10576000FF3008604FE040F22420C2F200000068E1
:10577000C068C06804900498406803900198039939
:10578000884207D2FFE7039844F26811C2F2000191
:10579000086038E0FFE704980430FFF73BF904980D
:1057A000806A28B1FFE704981830FFF733F900E06A
:1057B000FFE70498C16A012000FA01F243F6D861BC
:1057C000C2F200010868104308600499C86A00EB3F
:1057D000800240F23020C2F2000000EB820004316F
:1057E000FFF7A8F90498C06A40F22021C2F2000134
:1057F0000968C96A884203D3FFE70120029000E0EC
:10580000FFE7FFE79FE7FFE740F22020C2F200003A
:105810000068C06A00EB800140F23020C2F2000054
:1058200050F82100022803D3FFE70120029000E096
:10583000FFE744F2C810C2F20000006818B1FFE7A9
:105840000120029000E0FFE707E044F27811C2F285
:105850000001086801300860FFE7029806B080BDCB
:1058600080B584B002900298C068C0680190019829
:1058700058B9FFE74FF0500080F31188BFF36F8FE6
:10588000BFF34F8F0390FFE7FEE701981830FFF753
:10589000C1F843F6D060C2F200000068F0B9FFE73B
:1058A00001980430FFF7B6F80198C16A012000FAA8
:1058B00001F243F6D861C2F20001086810430860A3
:1058C0000199C86A00EB800240F23020C2F2000069
:1058D00000EB82000431FFF72DF909E0019800F197
:1058E000180144F27C10C2F20000FFF723F9FFE731
:1058F0000198C06A40F22021C2F200010968C96A19
:10590000884208D9FFE70120009044F2C811C2F292
:105910000001086002E000200090FFE7009804B05A
:1059200080BD000080B584B000200290019043F655
:10593000D060C2F20000006858B9FFE74FF0500095
:1059400080F31188BFF36F8FBFF34F8F0390FFE792
:10595000FEE7FFF717F943F6D060C2F200000168D6
:10596000013901600068002840F09280FFE743F6AB
:10597000C860C2F200000068002800F08880FFE7DD
:10598000FFE744F27C10C2F200000068E0B3FFE7DA
:1059900044F27C10C2F20000C068C0680290029815
:1059A0001830FFF737F802980430FFF733F8029801
:1059B000C16A012000FA01F243F6D861C2F2000187
:1059C0000868104308600299C86A00EB800240F240
:1059D0003020C2F2000000EB82000431FFF7AAF889
:1059E0000298C06A40F22021C2F200010968C96A27
:1059F000884207D3FFE744F2C811C2F20001012038
:105A0000086000E0FFE7BCE7029818B1FFE7FEF787
:105A100021FEFFE744F27810C2F200000068009017
:105A20000098E0B1FFE7FFE7FFF73EFE38B1FFE780
:105A300044F2C811C2F200010120086000E0FFE753
:105A4000009801380090FFE700980028ECD1FFE7AC
:105A500044F27811C2F200010020086000E0FFE784
:105A600044F2C810C2F20000006870B1FFE70120E4
:105A700001904EF60451CEF200014FF080500860C4
:105A8000BFF34F8FBFF36F8F00E0FFE7FFE700E04A
:105A9000FFE7FFF7A3F8019804B080BD5FEA400C70
:105AA00008BF91F0000F4FEA8C234FEAC12243EA6E
:105AB00051514FEA1C5018BF00F5F0404FEA30003A
:105AC00018BF41F000415FEA6C5C00F02980BCF136
:105AD000FF3F08BF40F080407047130C06BF120420
